:020000040800F2
:10000000400600203511000845030008470300089A
:100010004B0300084F0300085303000800000000D2
:10002000000000000000000000000000570300086E
:1000300059030008000000005B0300085D0300088E
:100040004F1100084F1100084F1100084F11000810
:100050004F1100084F1100084F1100084F11000800
:100060004F1100084F1100084F1100084F110008F0
:100070004F1100084F1100084F1100084F110008E0
:100080004F1100084F1100084F1100084F110008D0
:100090004F1100084F1100084F1100084F110008C0
:1000A0004F1100084F1100084F1100084F110008B0
:1000B0004F1100084F1100084F1100084F110008A0
:1000C0004F1100084F1100084F1100084F11000890
:1000D0004F110008C51000084F1100084F1100080B
:1000E0004F1100084F1100084F1100084F11000870
:1000F0004F1100084F1100084F1100084F11000860
:100100004F1100084F1100084F1100084F1100084F
:100110004F1100084F1100084F1100084F1100083F
:100120004F1100084F1100084F1100084F1100082F
:100130004F1100084F1100084F1100084F1100081F
:100140004F1100084F1100084F1100084F1100080F
:100150004F1100084F1100084F1100084F110008FF
:100160004F1100084F1100084F1100084F110008EF
:100170004F1100084F1100084F1100084F110008DF
:100180004F1100084F110008DFF810D001F078FF80
:10019000004800477B020008AFF3008040060020C3
:1001A0001CB501210C2001F095FD4FF4404000905A
:1001B00001208DF8040003208DF8050000208DF843
:1001C00006008DF8070069465C4801F0BBF84FF463
:1001D0008070009069465A4801F0B4F81CBD70B5B3
:1001E00004460D4625B1012D0FD0022D27D119E06F
:1001F0002CB14FF48041514801F020F904E04FF454
:1002000080414E4801F01CF919E02CB14FF4004137
:100210004A4801F013F904E04FF40041474801F067
:100220000FF90CE02CB14FF48071454801F006F94C
:1002300004E04FF48071424801F002F900BF00BFB2
:1002400070BD10B5044624B1012C08D0022C12D187
:100250000BE04FF48041394801F0D6F810BD4FF45F
:100260000041364801F0D0F8F8E74FF48071344887
:1002700001F0CAF8F2E7FF20F0E71CB5002001907A
:10028000009000F0ADFBFFF78BFF032000F0DDF9DD
:1002900004466068C31705462A460121084600F057
:1002A000BEFA4FF47A7000F030FE00252AE00122F9
:1002B00029462046A368984701AA29462046236973
:1002C00098479DF8042000230121022000F0A7FA9E
:1002D0004FF47A7000F019FE002229462046A368E8
:1002E000984701AA29462046236998479DF804208B
:1002F00000230121022000F092FA4FF47A7000F0FE
:1003000004FE6D1C032DD2DB002512E02946204699
:10031000E2689047694620466269904708230121B8
:100320000320009A00F03DFB4FF47A7000F0EDFDE1
:100330006D1C082DEADB00BFFEE70000000C024048
:1003400000080240704700BFFEE700BFFEE700BFA5
:10035000FEE700BFFEE77047704770477047000038
:100360000CB50020019000907648006840F4803081
:100370007449086000BF7348006800F400300090C2
:100380000198401C0190009818B90198B0F5A04F51
:10039000F1D16C48006800F4003010B101200090E9
:1003A00001E0002000900098012846D165484030C7
:1003B000006840F08050634940310860624800683E
:1003C00040F44040604908605E48083000685D497C
:1003D000083108600846006840F40040086008469C
:1003E000006840F4A05008605848091F0860081FC2
:1003F000006840F08070091F086000BF5148006825
:1004000000F000700028F9D040F2057050490860F3
:100410004C480830006820F003004A490831086061
:100420000846006840F00200086000BF45480830F8
:10043000006800F00C000828F8D10CBD10B5454844
:10044000006840F47000434908603E48006840F08E
:1004500001003C49086000203A49083108603948E9
:1004600000683D490840374908603C48091D08605C
:10047000081F006820F48020091F0860002031490F
:100480000C310860FFF76CFF4FF000603149803994
:10049000086010BD70B50020002202230024022154
:1004A000284D08352D6805F00C0020B1042806D031
:1004B000082834D107E02A4D2A4E356033E02A4D12
:1004C000284E35602FE01F4D2D1D2D68C5F380543B
:1004D0001C4D2D1D2D6805F03F0154B1224DB5FB7B
:1004E000F1F5184E361D3668C6F3881605FB06F280
:1004F00009E01B4DB5FBF1F5124E361D3668C6F30B
:10050000881605FB06F20F4D2D1D2D68C5F301451C
:100510006D1C6B00B2FBF3F5124E356003E0104D1D
:10052000104E356000BF00BF064D08352D68C5F37D
:1005300003150E4E705D0B4D2D68C540094E35609C
:1005400070BD0000003802400070004008544007B1
:10055000003C024088ED00E0FFFFF6FE1030002472
:100560000024F4000000002000127A0004000020A3
:1005700070B506460C4600250CE00121A940206814
:10058000884320602846FFF75CFEA84021680843A6
:1005900020606D1C7068A842EFDC2068306070BD80
:1005A00070B504460D4616462846FFF74AFE3070E1
:1005B0000121A9402068884320603178A940206843
:1005C0000843206070BD70B505460E46002407E064
:1005D00026FA04F101F001002146FFF700FE641C39
:1005E0006868A042F4DC2E6070BD70B504460D460C
:1005F000164629463046FFF7F2FD0121A940206842
:100600008843206006FA05F120680843206070BD29
:1006100010B5182001F056FD04460CB9002010BD9D
:10062000002060602060AFF23D00A060AFF2690082
:10063000E060AFF293002061AFF2CB006061002177
:100640002046E26890472046E9E770B50546FFF787
:10065000DFFF04460CB9002070BD65602046FBE753
:1006600010B5044622464021FE4800F0EBFE10BDC6
:1006700010B5044622468021FA4800F0E3FE10BD82
:1006800010B58021F74800F0BFFE10BD1CB5012158
:10069000022001F01FFBC020009001208DF8040013
:1006A00003208DF8050000208DF806008DF8070066
:1006B0006946EC4800F046FE00F0F5FBEA490860A8
:1006C000AFF2530009688860AFF26B00E649096831
:1006D000C860AFF25300E449096808611CBD70B5F9
:1006E0000446E14800682346002278214569DE4837
:1006F0000068A84770BD70B50446DB480068234613
:10070000402278214569D8480068A84770BD70B577
:1007100005460C4645F0B000FFF7E1FF102141EA25
:100720001410FFF7DCFF04F00F00FFF7D8FF70BDD7
:1007300070B500240EE000212046FFF7E8FF0025F9
:1007400004E00020FFF7D7FF681CC5B2802DF8DB5E
:10075000601CC4B2082CEEDB70BD2DE9F0410546EB
:100760000E461746721ED206110E6A1E5206100E53
:10077000FFF7CDFF002409E0A7F12001BB4A02EBFF
:100780000111085DFFF7B7FF601CC4B2082CF3DB52
:10079000721ED206110E6A1E012303EB4202D0B272
:1007A000FFF7B5FF00240BE0A7F12001AF4A02EBF1
:1007B000011204F10801505CFFF79DFF601CC4B2F8
:1007C000082CF1DBBDE8F0812DE9F04107460E462B
:1007D0001546002407E02A5D3019C1B23846FFF7FC
:1007E000BCFF601CC4B2285D0028F4D1BDE8F081D4
:1007F00070B505460C460CB9012070BD04F001002F
:1008000028B1611E2846FFF7F3FF6843F5E761084A
:100810002846FFF7EDFF064606FB06F0EDE72DE95B
:10082000FF5F84B0894614461D464FF0000AD0464B
:1008300000210846611A75EB00000CDA2D224946AA
:100840000498FFF78AFF0022644262EB050509F174
:10085000010000F0FF0926462F4634463D460021A0
:1008600086EA01007940084302D14FF0010A11E005
:100870000BE00A2200233046394601F07FFB064692
:100880000F460AF101001FFA80FA00210846891B71
:10089000B841EEDB23E0AAEB0800411E0A20FFF777
:1008A000A7FF002102460B46CDE90001204629465C
:1008B00001F064FB0A220023CDE9020101F05EFB96
:1008C0003020101800F0FF0B09EB0800C1B25A46A7
:1008D0000498FFF742FF08F101001FFA80F8D045A5
:1008E000D9DB08B0BDE8F09F2DE9F0478146884686
:1008F00015461E46002D06DB2B2241464846FFF7D3
:100900002CFF2F4605E02D2241464846FFF725FFE4
:100910006F42002417E0301B411E0A20FFF768FFDA
:10092000B7FBF0F00A21B0FBF1F201FB120000F17D
:10093000300A08EB0400401CC1B252464846FFF79B
:100940000CFF601CC4B2B442E5DBBDE8F0872DE9C2
:10095000F04781460E4690461F4600241DE0381B96
:10096000411E1020FFF744FFB8FBF0F000F00F0528
:100970000A2D08DA05F13000C2B23019C1B248467A
:10098000FFF7EBFE07E005F13700C2B23019C1B244
:100990004846FFF7E2FE601CC4B2BC42DFDBBDE8A4
:1009A000F0872DE9F04780460E4617461D46002485
:1009B00012E0281B411E0220FFF71AFFB7FBF0F0E0
:1009C00000F0010000F130093019C1B24A4640463A
:1009D000FFF7C3FE601CC4B2AC42EADBBDE8F0879F
:1009E00070B5002406E0002500E06D1CB5F57A7FA7
:1009F000FBD3641CB4F57A7FF5D3FFF747FEAE2036
:100A0000FFF76DFED520FFF76AFE8020FFF767FE37
:100A1000A820FFF764FE3F20FFF761FED320FFF719
:100A20005EFE0020FFF75BFE4020FFF758FEA1208E
:100A3000FFF755FEC820FFF752FEDA20FFF74FFE02
:100A40001220FFF74CFE8120FFF749FECF20FFF771
:100A500046FED920FFF743FEF120FFF740FEDB20E2
:100A600006E00000000402401400002030210008CD
:100A7000FFF735FE3020FFF732FEA420FFF72FFEF0
:100A8000A620FFF72CFE8D20FFF729FE1420FFF78C
:100A900026FEAF20FFF723FEFFF74AFE70BD0000E1
:100AA00010B50446002201212046636898470122C0
:100AB000002120466368984701221146204663685A
:100AC00098470022114620466368984710BD10B52C
:100AD000044634B1012C06D0022C08D0032C0ED1D0
:100AE00009E000BF0CE00A2000F0F4F908E0012062
:100AF00000F00BFA04E0012000F0ECF900E000BF88
:100B000000BF012010BD10B504460022114620464A
:100B100063689847002201212046636898470122B4
:100B200000212046636898470320FFF7D0FF00228A
:100B300011462046636898470122114620466368A3
:100B4000984710BD10B50446002211462046636840
:100B500098470122114620466368984701220021E8
:100B60002046636898470320FFF7B1FF0022114633
:100B700020466368984701221146204663689847DB
:100B800010BD2DE9F0410446002607251AE0002299
:100B90001146204663689847012200212046636879
:100BA000984720698047074607F00100002803DDC9
:100BB0000120A840304303E00121A94026EA0100BA
:100BC000C6B26D1E002DE2DA3046BDE8F08170B588
:100BD00004460025012211462046636898470122F9
:100BE00000212046636898470BE0681CC5B20020CE
:100BF000FFF76DFFC82D04DD2046FFF751FF0120F0
:100C000070BD206980470028EFD1002211462046A0
:100C1000636898470020F3E72DE9F04104460E464B
:100C2000072513E046FA05F000F001073A460121D6
:100C30002046636898470122002120466368984750
:100C4000002211462046636898476D1E002DE9DAA0
:100C5000BDE8F08110B504460122002120466368FA
:100C600098470122114620466368984700220121D7
:100C700020466368984700221146204663689847DB
:100C800010BD2DE9F04781460D4616461F46DDF89A
:100C900020804846FFF7DEFF05F0FE014846FFF7DB
:100CA000BBFF4846FFF793FF18B14FF0FF30BDE898
:100CB000F08731464846FFF7AFFF4846FFF787FF0A
:100CC00010B16FF00100F2E74846FFF7C3FF45F0AF
:100CD00001014846FFF7A0FF4846FFF778FF10B133
:100CE0006FF00200E3E700240FE04846FFF749FFFA
:100CF0003855A8F10100A04203D14846FFF722FF72
:100D000002E04846FFF7FFFE641C4445EDDB484621
:100D1000FFF7C6FE0020CAE72DE9F04780460D46E2
:100D200016461F46DDF820904046FFF793FF05F07A
:100D3000FE014046FFF770FF4046FFF748FF18B13D
:100D40004FF0FF30BDE8F08731464046FFF764FFC3
:100D50004046FFF73CFF10B16FF00100F2E70024BE
:100D60000BE0395D4046FFF757FF4046FFF72FFF86
:100D700010B16FF00200E5E7641C4C45F1DB404622
:100D8000FFF78EFE0020DDE72DE9F04107460C4617
:100D900016461D46002028703846FFF75BFF04F01A
:100DA000FE013846FFF738FF3846FFF710FF18B14D
:100DB0004FF0FF30BDE8F08131463846FFF72CFF99
:100DC0003846FFF704FF10B16FF00100F2E7384634
:100DD000FFF740FF44F001013846FFF71DFF38469A
:100DE000FFF7F5FE10B16FF00200E3E73846FFF7BA
:100DF000C8FE28703846FFF7A5FE3846FFF750FEBC
:100E00000020D7E72DE9F04107460C4615461E465F
:100E10003846FFF71FFF04F0FE013846FFF7FCFEDF
:100E20003846FFF7D4FE18B14FF0FF30BDE8F0812F
:100E300029463846FFF7F0FE3846FFF7C8FE10B1E6
:100E40006FF00100F2E731463846FFF7E5FE38461D
:100E5000FFF7BDFE10B16FF00200E7E73846FFF77D
:100E60001FFE0020E2E770B504460E46154616B197
:100E7000012E14D109E0002D03DD0120E16888472F
:100E800002E00020E16888470AE0002D03DD012030
:100E9000A168884702E00020A168884700E000BF01
:100EA00000BF012070BD10B50024242001F00AF914
:100EB0000446AFF24D006060AFF2B7006061AFF280
:100EC0003710A061AFF2AF10E061AFF249202062AD
:100ED000204610BD014601EBC1024FF0E0235A61EC
:100EE00000229A6101221A6100BF4FF0E0221069CE
:100EF00000F001021AB100F48032002AF5D000227D
:100F00004FF0E0231A619A617047014642F228329D
:100F10004A434FF0E0235A6100229A6101221A618C
:100F200000BF4FF0E022106900F001021AB100F496
:100F30008032002AF5D000224FF0E0231A619A6136
:100F40007047000000BF704700BF754A128802F06A
:100F50004002002AF9D0C2B2714B9A80704710B596
:100F600088B004460121084600F0B4FE012110209B
:100F700000F00AFF072209216A4800F06EFA0722F2
:100F80000A21684800F069FA4FF4C0600690022018
:100F90008DF81C008DF81D0000208DF81E0001202A
:100FA0008DF81F0006A95F4800F0CCF902940020DC
:100FB000ADF80C00ADF80E00ADF81000ADF814005F
:100FC0000C20ADF8120002A9554800F0E6FA012104
:100FD000534800F06AFB012240F22551504800F0CE
:100FE0001AFC25208DF8040003208DF805008DF8EB
:100FF000060001208DF8070001A800F0B2F808B043
:1010000010BD70B504460D462946204600F078FB19
:1010100000BF8021204600F023FC0028F9D070BDDD
:101020002DE9F04105460C46260AE7B2314628462E
:1010300000F066FB00BF8021284600F011FC00286C
:10104000F9D03946284600F05BFB00BF80212846D6
:1010500000F006FC0028F9D0BDE8F0812DE9F04150
:1010600007460D46164600240CE0295D384600F080
:1010700047FB00BF8021384600F0F2FB0028F9D082
:10108000601C84B2B442F0DB00BF4021384600F05F
:10109000E7FB0028F9D0BDE8F08170B506460C46A4
:1010A000002500BF615D3046FFF7ABFF6D1C605D42
:1010B0000028F7D100BF4021304600F0D1FB0028C6
:1010C000F9D070BD10B540F22551154800F0DEFB97
:1010D00028B3134800F018FBC4B21348006850B19D
:1010E000232C08D011481049096844540E48006860
:1010F000401C0D490860232C08D100200A490860D3
:101100000A48047008460068401C08600A2C06D192
:10111000002005490860054840780549087010BD61
:101120000010014000000240240000201E000020AA
:10113000230000200648804706480047FEE7FEE7F8
:10114000FEE7FEE7FEE7FEE7FEE7FEE7FEE7FEE777
:101150003D0400088901000832490143324A116008
:10116000704770B5002100230F22C4781CB32E4CA9
:10117000246804F4E064C4F5E064C4F30721C1F119
:101180000404E3B20A4144789C40E1B284781440FC
:1011900021430C07210E254C05786155047804F095
:1011A0001F050124AC4005786D11AD0005F1E02567
:1011B000C5F8004109E0047804F01F050124AC40A3
:1011C0001B4D0678761145F8264070BD194A0A4035
:1011D0000243154B1B1F1A60704739B1124A121D8A
:1011E00012680243104B1B1D1A6006E00E4A121DC6
:1011F000126882430C4B1B1D1A607047042808D1EB
:101200004FF0E021096941F004014FF0E022116143
:1012100007E04FF0E021096921F004014FF0E022DE
:10122000116170470000FA050CED00E000E400E0F9
:1012300080E100E080FFFF1F10B50446984884421B
:1012400008D10121084600F0B0FD0021012000F086
:10125000ACFD76E09348844208D10121022000F0E1
:10126000A4FD0021022000F0A0FD6AE08E48844227
:1012700008D10121042000F098FD0021042000F095
:1012800094FD5EE08948844208D10121082000F0E5
:101290008CFD0021082000F088FD52E08448844243
:1012A00008D10121102000F080FD0021102000F065
:1012B0007CFD46E07F48844208D10121202000F0D7
:1012C00074FD0021202000F070FD3AE07A4884424D
:1012D00008D10121402000F068FD0021402000F0ED
:1012E00064FD2EE07548844208D10121802000F081
:1012F0005CFD0021802000F058FD22E0704884420F
:1013000008D10121801500F050FD0021A01500F04A
:101310004CFD16E06B48844208D10121401500F0D5
:1013200044FD0021601500F040FD0AE0664884425B
:1013300007D10121001500F038FD0021201500F033
:1013400034FD10BDF0B50A4600210023002400BF83
:101350003DE0012505FA01F3156805EA03049C4206
:1013600034D105684F000326BE40B54305601579AA
:101370004E00B5400668354305601579012D02D051
:101380001579022D16D185684F000326BE40B5435E
:10139000856055794E00B54086683543856045685F
:1013A00001268E40B5434560456896798E40B6B2B9
:1013B00035434560C5684F000326BE40B543C56050
:1013C000D5794E00B540C6683543C560491C102923
:1013D000BFD3F0BD4FF6FF71016000210171417173
:1013E0008171C171704708B54FF480320092009A44
:1013F0000A430092009AC261C161009AC261C26947
:101400000092C269009208BD0246002013690B4099
:101410000BB1012000E0002070470146086980B24E
:1014200070470246002053690B400BB1012000E0D9
:10143000002070470146486980B2704701837047B9
:10144000418370470AB1018300E0418370474161E5
:10145000704742694A4042617047F0B5002300245A
:101460004D07ED0E02FA05F3CE1000F1200555F8F8
:1014700026504E07F70E0F26BE40B543CF1000F1A1
:10148000200646F82750CE1000F1200555F82650CA
:1014900045EA0304CE1000F1200545F82640F0BDD2
:1014A000000002400004024000080240000C02401C
:1014B000001002400014024000180240001C0240CC
:1014C00000200240002402400028024010B50446DB
:1014D000FA48844208D10121102000F0AAFC002122
:1014E000102000F0A6FC57E0F548844209D1012104
:1014F000480400F08DFC00214FF4003000F088FC1F
:101500004AE0F048844209D10121880400F080FCBF
:1015100000214FF4802000F07BFC3DE0EA4884424B
:1015200009D10121C80400F073FC00214FF4002010
:1015300000F06EFC30E0E548844209D10121080545
:1015400000F066FC00214FF4801000F061FC23E005
:10155000DF48844208D10121202000F06AFC0021EC
:10156000202000F066FC17E0DA48844209D101210E
:10157000880700F04DFC00214FF0804000F048FC4F
:101580000AE0D548844207D10121400500F040FC23
:101590000021600500F03CFC10BD2DE9FF47054629
:1015A0000E460024A14600BFA046B08900B100BF8E
:1015B0002C8A24F44054F08804432C82AC8941F2F4
:1015C0000C608443B088318908437189084304431F
:1015D000AC81AC8A24F44074B0890443AC82684680
:1015E00000F0A7FAB548854202D0B948854202D139
:1015F000DDF80C9001E0DDF80890A88900F40040C7
:1016000040B109EBC90000EB091031684900B0FB9B
:10161000F1F707E009EBC90000EB09103168890018
:10162000B0FBF1F76420B7FBF0F00401200964215E
:1016300001FB1078A88900F4004040B1322000EB93
:10164000C800B0FBF1F000F00700044308E03220CE
:1016500000EB08106421B0FBF1F000F00F00044330
:101660002C81BDE8FF874FF4165101600021818075
:10167000C18001810C21418100218181704710B519
:1016800002460020108A20F470600B884C882343A7
:101690008C882343CC8823431843108210BD00213B
:1016A000018041808180C180704721B1828942F4EC
:1016B0000052828104E082894DF6FF731A408281D4
:1016C0007047028B02F47F420283028B0A4302833B
:1016D000704721B1828942F40042828103E082890D
:1016E000C2F30E028281704721B1828A42F4006205
:1016F000828204E0828A4FF2FF731A40828270472E
:10170000C1F308028280704701468888C0F3080050
:101710007047028A4FF6F0731A400282028A0A4327
:101720000282704721B1828942F00202828104E084
:1017300082894FF6FD731A408281704782894FF289
:10174000FF731A40828182890A4382817047028A2C
:101750004FF6DF731A400282028A0A430282704700
:1017600021B1028A42F48042028204E0028A4BF6EE
:10177000FF731A4002827047818941F00101818123
:10178000704721B1828A42F00802828204E0828A94
:101790004FF6F7731A4082827047028BD2B20283EF
:1017A000028B42EA01220283704721B1828A42F011
:1017B0002002828204E0828A4FF6DF731A4082821E
:1017C000704721B1828A42F01002828204E0828A4C
:1017D0004FF6EF731A4082827047828A4FF6FB738E
:1017E0001A408282828A0A438282704721B1828AA9
:1017F00042F00202828204E0828A4FF6FD731A40B0
:10180000828270471AB1838A0B43838202E0838A03
:101810008B4383827047F0B50346002400260025E1
:10182000002040F66A17B94200D100BF1846C1F344
:10183000421401F01F06012707FA06F5012C01D119
:101840000C3004E0022C01D1103000E014301AB149
:1018500007682F43076002E00768AF430760F0BDE9
:1018600002460020B1F5007F00D100BF13880B4075
:101870000BB1012000E00020704701F40072B2F5C6
:10188000007F00D100BFCA430280704770B5024696
:10189000002400230025002040F66A16B14200D142
:1018A00000BFC1F3421501F01F03012606FA03F33E
:1018B000012D13D19689334017E00000001001403C
:1018C0000044004000480040004C004000500040F0
:1018D0000014014000780040007C0040022D02D13D
:1018E000168A334001E0968A33400C12012606FA2C
:1018F00004F41688344013B10CB1012000E000203C
:1019000070BD10B50022002340F66A14A14200D138
:1019100000BF0A1201249440A3B2DC43048010BD2E
:10192000F948006840F00100F74908600020F649D6
:1019300008310860F4480068F4490840F24908603A
:10194000F348091D0860F348EF4984310860F04806
:101950001038091D0860EC48006820F48020EA492E
:1019600008600020E8490C310860E7498C310860C4
:1019700070470021E44A921C1170114608707047AC
:1019800010B501460022002300204A11012A02D18D
:10199000DD4C236808E0022A03D1DB4C7034236855
:1019A00002E0D94C7434236801F01F0201249440F2
:1019B0001C400CB1012000E0002010BD38B5002013
:1019C00000900024002500BF3120FFF7D9FF054615
:1019D0000098401C00900098B0F5A04F01D0002D59
:1019E000F2D03120FFF7CCFF08B1012400E0002441
:1019F000204638BD01460020C34A106820F0F80098
:101A000040EAC10010607047C34908607047002178
:101A1000BD4A703211701170012802D004280AD119
:101A200004E00121B84A7032117005E00521B64A80
:101A30007032117000E000BF00BF7047B749086006
:101A4000704770B5049C41EA82150126C6EB530627
:101A500045EA0645054345EA0465AB4E361D35604B
:101A600070BDAD4908667047820142EA0172A64B1B
:101A700084331A607047A8498866704710B583019F
:101A800043EA016343EA02739F4C8834236010BD2C
:101A9000A14908677047A049C86470470246002002
:101AA000994B0833186820F0EC6042EA01031843B0
:101AB000954B08331860704702460020924B08335C
:101AC000186820F0784042EA010318438E4B08332F
:101AD00018607047014600208B4A0832106820F0D9
:101AE000030008431060704787480830006800F022
:101AF0000C00704701460020834A0832106820F02D
:101B0000F000084310607047014600207E4A08320A
:101B1000106820F4E0500843106070470146002030
:101B2000794A0832106820F4604040EAC100106031
:101B30007047F0B500210022002402250026022370
:101B4000714F08373F6807F00C0121B1042905D017
:101B5000082937D105E0724F076036E0714F076002
:101B600033E0694F3F1D3F68C7F38056664F3F1D06
:101B70003F6807F03F036EB16A4FB7FBF3F7DFF83A
:101B800088C10CF1040CDCF800C0CCF3881C07FB06
:101B90000CF40CE0624FB7FBF3F7DFF86CC10CF10B
:101BA000040CDCF800C0CCF3881C07FB0CF4564F87
:101BB0003F1D3F68C7F301477F1C7D00B4FBF5F76D
:101BC000076002E0564F076000BF00BF4E4F083766
:101BD0003F6807F0F0010909534F7A5C0768D74066
:101BE0004760494F08373F6807F4E051890A4E4F74
:101BF0007A5C4768D7408760434F08373F6807F4EF
:101C00006041490B484F7A5C4768D740C760F0BDD8
:101C1000002100F44072B2F5407F0AD13A4A0832FE
:101C2000116821F4F811414A02401143364A083242
:101C30001160354A70321268C0F30B031A43324BFD
:101C400070331A607047354944390860704733492A
:101C500040390860704736490860704701460020E7
:101C6000294A8C32106820F01F004A1E1043264A71
:101C70008C321060704701460020234A8C32106875
:101C800020F4F8504A1E40EA02201F4A8C321060AD
:101C90007047014600201C4A8C32106820F4401026
:101CA00008431060704701460020174A8C321068C4
:101CB00020F4400008431060704701460020124A9B
:101CC0008C32106820F44030084310607047194986
:101CD0000860704739B10C4A3032126802430A4B2F
:101CE00030331A6006E0084A303212688243064BED
:101CF00030331A607047F9B1034A34321268024334
:101D0000014B34331A601CE000380240FFFFF6EA52
:101D1000103000240030002000004742800E47426F
:101D20000024F40000127A0028000020FFFCFF0FBE
:101D30005C014742E01147428F4A126882438E4B52
:101D40001A60704739B18C4A121D126802438A4BDF
:101D50001B1D1A6006E0884A121D12688243864BDA
:101D60001B1D1A60704739B1834A0C321268024356
:101D7000814B0C331A6006E07F4A0C3212688243B2
:101D80007D4B0C331A60704739B17B4A10321268B0
:101D90000243794B10331A6006E0774A103212681A
:101DA0008243754B10331A60704739B1724A243A36
:101DB00012680243704B243B1A6006E06E4A243AD4
:101DC000126882436C4B243B1A60704739B16A4AEF
:101DD000203A12680243684B203B1A6006E0664ACC
:101DE000203A12688243644B203B1A60704739B135
:101DF000614A1C3A126802435F4B1C3B1A6006E0C2
:101E00005D4A1C3A126882435B4B1C3B1A60704768
:101E100039B1594A143A12680243574B143B1A60BD
:101E200006E0554A143A12688243534B143B1A6039
:101E3000704739B1504A103A126802434E4B103B7A
:101E40001A6006E04C4A103A126882434A4B103B33
:101E50001A60704739B1484A1C3212680243464B37
:101E60001C331A6006E0444A1C3212688243424B1B
:101E70001C331A60704739B13F4A2032126802435E
:101E80003D4B20331A6006E03B4A20321268824301
:101E9000394B20331A60704739B1374A24321268FF
:101EA0000243354B24331A6006E0334A2432126869
:101EB0008243314B24331A60704739B12E4A2C3299
:101EC000126802432C4B2C331A6006E02A4A2C324B
:101ED00012688243284B2C331A60704739B1264A66
:101EE000303212680243244B30331A6006E0224A33
:101EF000303212688243204B30331A607047012819
:101F000008D11D493C31096841F008011A4A3C32A8
:101F1000116007E018493C31096821F00801164AB0
:101F20003C321160704739B1134A273A12780243A4
:101F3000114B273B1A7006E00F4A273A127882436A
:101F40000D4B273B1A7070470B484030006840F03B
:101F50008070094940310860704701460020064AF8
:101F6000283A12680A400AB1012000E000207047B8
:101F70000149263908707047343802402DE9F04194
:101F80000024061B254671F1000605DA012400270E
:101F9000D0EB070067EB0101161E73F1000605DAAE
:101FA0000027D2EB0702012567EB030300F017F8C7
:101FB00086460E4617469C46AC4204D00025D0EB20
:101FC000050E65EB010624B10020D2EB000760EBA3
:101FD000030C704631463A466346BDE8F0812DE970
:101FE000F05F0546002092469B468846064681469D
:101FF00040241BE0284641464746224600F02FF881
:1020000053465A46C01A914110D3114618462246EB
:1020100000F016F82D1A67EB01084F462246012002
:10202000002100F00DF817EB00094E41201EA4F12D
:102030000104DFDC484631462A464346BDE8F09FAE
:10204000202A04DB203A00FA02F100207047914078
:10205000C2F1200320FA03F3194390407047202A6D
:1020600004DB203A21FA02F00021704721FA02F342
:10207000D040C2F120029140084319467047000049
:10208000064C074D06E0E06840F0010394E80700C5
:1020900098471034AC42F6D3FEF77AF820270008B0
:1020A0004027000802E008C8121F08C1002AFAD120
:1020B00070477047002001E001C1121F002AFBD1C8
:1020C00070470000F0B50B30154D20F007010024DB
:1020D000144A0FE003688B420BD38B4205D95E1A7A
:1020E00043184768C3E9006700E04368136002C013
:1020F00004E0021D10680028ECD12046002802D11F
:10210000286808B10020F0BD064A07481060074A59
:10211000121A22F00702C0E9002401202860D7E744
:102120003C00002038000020440000204002002035
:10213000000000000000000000000000000000009F
:10214000000000F800000000000000333000000034
:1021500000100C06100C060000000000000000003B
:1021600040C07840C0784000043F04043F040400AD
:10217000007088FC08300000001820FF211E0000BD
:10218000F008F000E018000000211C031E211E00D2
:1021900000F00888700000001E2123241927211058
:1021A00010160E00000000000000000000000000FB
:1021B000000000E0180402000000000718204000A2
:1021C00000020418E0000000004020180700000092
:1021D000404080F0804040000202010F01020200F6
:1021E000000000F0000000000101011F01010100DA
:1021F000000000000000000080B07000000000003F
:1022000000000000000000000001010101010101C7
:10221000000000000000000000303000000000005E
:102220000000000080601804006018060100000033
:1022300000E010080810E000000F102020100F0030
:10224000001010F8000000000020203F20200000B7
:10225000007008080888700000302824222130000F
:1022600000300888884830000018202020110E0017
:102270000000C02010F8000000070424243F2400C0
:1022800000F80888880808000019212020110E0095
:1022900000E0108888180000000F112020110E00A7
:1022A00000380808C83808000000003F000000009F
:1022B0000070880808887000001C222121221C0060
:1022C00000E010080810E0000000312222110F0089
:1022D000000000C0C000000000000030300000001E
:1022E000000000800000000000008060000000008E
:1022F00000008040201008000001020408102000A7
:1023000040404040404040000404040404040400F1
:102310000008102040800000002010080402010086
:10232000007048080808F000000000303601000086
:10233000C030C828E810E0000718272423140B0039
:102340000000C038E0000000203C230202273820B3
:1023500008F8888888700000203F202020110E0097
:10236000C03008080808380007182020201008008E
:1023700008F808080810E000203F202020100F0077
:1023800008F88888E8081000203F20202320180043
:1023900008F88888E8081000203F200003000000AB
:1023A000C03008080838000007182020221E02004C
:1023B00008F808000008F808203F210101213F200B
:1023C000000808F8080800000020203F2020000036
:1023D00000000808F8080800C08080807F00000026
:1023E00008F888C028180800203F2001263820005F
:1023F00008F8080000000000203F202020203000C6
:1024000008F8F800F8F80800203F003F003F2000DF
:1024100008F830C00008F808203F200007183F00E7
:10242000E01008080810E0000F10202020100F0016
:1024300008F808080808F000203F21010101000009
:10244000E01008080810E0000F18242438504F004E
:1024500008F8888888887000203F2000030C30200E
:1024600000708808080838000038202121221C004C
:10247000180808F8080818000000203F2000000095
:1024800008F808000008F808001F202020201F007E
:102490000878880000C83808000007380E010000DE
:1024A000F80800F80008F800033C0700073C0300A8
:1024B000081868808068180820302C03032C30200E
:1024C0000838C800C83808000000203F200000007D
:1024D00010080808C83808002038262120201800D5
:1024E000000000FE020202000000007F40404000A9
:1024F000000C30C000000000000000010638C000E1
:1025000000020202FE000000004040407F00000088
:1025100000000402020204000000000000000000AD
:1025200000000000000000008080808080808080AB
:102530000002020400000000000000000000000093
:1025400000008080808000000019242222223F2089
:1025500008F8008080000000003F112020110E00CC
:102560000000008080800000000E1120202011005B
:10257000000000808088F800000E112020103F200D
:102580000000808080800000001F22222222130091
:10259000008080F0888888180020203F20200000DC
:1025A0000000808080808000006B94949493600091
:1025B00008F8008080800000203F210000203F209C
:1025C00000809898000000000020203F202000009C
:1025D000000000809898000000C08080807F00008C
:1025E00008F8000080808000203F24022D30200069
:1025F000000808F8000000000020203F2020000014
:102600008080808080808000203F20003F20003F2D
:102610008080008080800000203F210000203F203B
:102620000000808080800000001F202020201F00EC
:10263000808000808000000080FFA12020110E001B
:102640000000008080808000000E112020A0FF800C
:10265000808080008080800020203F2120000100B9
:10266000000080808080800000332424242419000E
:10267000008080E0808000000000001F202000001B
:102680008080000000808000001F202020103F205C
:10269000808080000080808000010E3008060100EC
:1026A00080800080008080800F300C030C300F0091
:1026B00000808000808080000020312E0E312000BC
:1026C000808080000080808080818E7018060100EC
:1026D00000808080808080000021302C222130000A
:1026E00000000000807C020200000000003F40402B
:1026F00000000000FF00000000000000FF000000DC
:102700000002027C800000000040403F000000000A
:1027100000060101020204040000000000000000A5
:10272000402700080000002040000000A42000080E
:10273000802700084000002000060000B4200008A8
:10274000007A030A000000000000000001020304F8
:10275000060708090000000000000000000000005B
:10276000000000000000000000000000010203045F
:102770000102030406070809000000000000000031
:040000050800018965
:00000001FF
